{
  "contractName": "Policy",
  "abi": [
    {
      "inputs": [
        {
          "internalType": "address",
          "name": "default_video_admin",
          "type": "address"
        },
        {
          "internalType": "address",
          "name": "default_audio_admin",
          "type": "address"
        }
      ],
      "stateMutability": "nonpayable",
      "type": "constructor"
    },
    {
      "anonymous": false,
      "inputs": [
        {
          "indexed": false,
          "internalType": "bytes32",
          "name": "tokens",
          "type": "bytes32"
        }
      ],
      "name": "AuthTokens",
      "type": "event"
    },
    {
      "anonymous": false,
      "inputs": [
        {
          "indexed": false,
          "internalType": "address",
          "name": "video_admin_event",
          "type": "address"
        },
        {
          "indexed": false,
          "internalType": "address",
          "name": "audio_admin_event",
          "type": "address"
        },
        {
          "indexed": false,
          "internalType": "int16[]",
          "name": "tokens",
          "type": "int16[]"
        }
      ],
      "name": "MyEvent",
      "type": "event"
    },
    {
      "anonymous": false,
      "inputs": [
        {
          "indexed": true,
          "internalType": "bytes32",
          "name": "role",
          "type": "bytes32"
        },
        {
          "indexed": true,
          "internalType": "bytes32",
          "name": "previousAdminRole",
          "type": "bytes32"
        },
        {
          "indexed": true,
          "internalType": "bytes32",
          "name": "newAdminRole",
          "type": "bytes32"
        }
      ],
      "name": "RoleAdminChanged",
      "type": "event"
    },
    {
      "anonymous": false,
      "inputs": [
        {
          "indexed": true,
          "internalType": "bytes32",
          "name": "role",
          "type": "bytes32"
        },
        {
          "indexed": true,
          "internalType": "address",
          "name": "account",
          "type": "address"
        },
        {
          "indexed": true,
          "internalType": "address",
          "name": "sender",
          "type": "address"
        }
      ],
      "name": "RoleGranted",
      "type": "event"
    },
    {
      "anonymous": false,
      "inputs": [
        {
          "indexed": true,
          "internalType": "bytes32",
          "name": "role",
          "type": "bytes32"
        },
        {
          "indexed": true,
          "internalType": "address",
          "name": "account",
          "type": "address"
        },
        {
          "indexed": true,
          "internalType": "address",
          "name": "sender",
          "type": "address"
        }
      ],
      "name": "RoleRevoked",
      "type": "event"
    },
    {
      "inputs": [],
      "name": "AUDIO_WORKSPACE_ADMIN",
      "outputs": [
        {
          "internalType": "bytes32",
          "name": "",
          "type": "bytes32"
        }
      ],
      "stateMutability": "view",
      "type": "function",
      "constant": true
    },
    {
      "inputs": [],
      "name": "DEFAULT_ADMIN_ROLE",
      "outputs": [
        {
          "internalType": "bytes32",
          "name": "",
          "type": "bytes32"
        }
      ],
      "stateMutability": "view",
      "type": "function",
      "constant": true
    },
    {
      "inputs": [],
      "name": "RECEIVE_AUDIO",
      "outputs": [
        {
          "internalType": "bytes32",
          "name": "",
          "type": "bytes32"
        }
      ],
      "stateMutability": "view",
      "type": "function",
      "constant": true
    },
    {
      "inputs": [],
      "name": "RECEIVE_TEXT",
      "outputs": [
        {
          "internalType": "bytes32",
          "name": "",
          "type": "bytes32"
        }
      ],
      "stateMutability": "view",
      "type": "function",
      "constant": true
    },
    {
      "inputs": [],
      "name": "RECEIVE_VIDEO",
      "outputs": [
        {
          "internalType": "bytes32",
          "name": "",
          "type": "bytes32"
        }
      ],
      "stateMutability": "view",
      "type": "function",
      "constant": true
    },
    {
      "inputs": [],
      "name": "SEND_AUDIO",
      "outputs": [
        {
          "internalType": "bytes32",
          "name": "",
          "type": "bytes32"
        }
      ],
      "stateMutability": "view",
      "type": "function",
      "constant": true
    },
    {
      "inputs": [],
      "name": "SEND_TEXT",
      "outputs": [
        {
          "internalType": "bytes32",
          "name": "",
          "type": "bytes32"
        }
      ],
      "stateMutability": "view",
      "type": "function",
      "constant": true
    },
    {
      "inputs": [],
      "name": "SEND_VIDEO",
      "outputs": [
        {
          "internalType": "bytes32",
          "name": "",
          "type": "bytes32"
        }
      ],
      "stateMutability": "view",
      "type": "function",
      "constant": true
    },
    {
      "inputs": [],
      "name": "VIDEO_WORKSPACE_ADMIN",
      "outputs": [
        {
          "internalType": "bytes32",
          "name": "",
          "type": "bytes32"
        }
      ],
      "stateMutability": "view",
      "type": "function",
      "constant": true
    },
    {
      "inputs": [
        {
          "internalType": "bytes32",
          "name": "role",
          "type": "bytes32"
        }
      ],
      "name": "getRoleAdmin",
      "outputs": [
        {
          "internalType": "bytes32",
          "name": "",
          "type": "bytes32"
        }
      ],
      "stateMutability": "view",
      "type": "function",
      "constant": true
    },
    {
      "inputs": [
        {
          "internalType": "bytes32",
          "name": "role",
          "type": "bytes32"
        },
        {
          "internalType": "address",
          "name": "account",
          "type": "address"
        }
      ],
      "name": "hasRole",
      "outputs": [
        {
          "internalType": "bool",
          "name": "",
          "type": "bool"
        }
      ],
      "stateMutability": "view",
      "type": "function",
      "constant": true
    },
    {
      "inputs": [
        {
          "internalType": "bytes32",
          "name": "role",
          "type": "bytes32"
        },
        {
          "internalType": "address",
          "name": "account",
          "type": "address"
        }
      ],
      "name": "renounceRole",
      "outputs": [],
      "stateMutability": "nonpayable",
      "type": "function"
    },
    {
      "inputs": [
        {
          "internalType": "bytes32",
          "name": "role",
          "type": "bytes32"
        },
        {
          "internalType": "address",
          "name": "account",
          "type": "address"
        }
      ],
      "name": "revokeRole",
      "outputs": [],
      "stateMutability": "nonpayable",
      "type": "function"
    },
    {
      "inputs": [
        {
          "internalType": "bytes4",
          "name": "interfaceId",
          "type": "bytes4"
        }
      ],
      "name": "supportsInterface",
      "outputs": [
        {
          "internalType": "bool",
          "name": "",
          "type": "bool"
        }
      ],
      "stateMutability": "view",
      "type": "function",
      "constant": true
    },
    {
      "inputs": [],
      "name": "get_default_admins",
      "outputs": [],
      "stateMutability": "nonpayable",
      "type": "function"
    },
    {
      "inputs": [
        {
          "internalType": "address",
          "name": "addr",
          "type": "address"
        }
      ],
      "name": "check_send_video",
      "outputs": [
        {
          "internalType": "bytes32",
          "name": "",
          "type": "bytes32"
        }
      ],
      "stateMutability": "view",
      "type": "function",
      "constant": true
    },
    {
      "inputs": [
        {
          "internalType": "address",
          "name": "addr",
          "type": "address"
        }
      ],
      "name": "check_receive_video",
      "outputs": [
        {
          "internalType": "bytes32",
          "name": "",
          "type": "bytes32"
        }
      ],
      "stateMutability": "view",
      "type": "function",
      "constant": true
    },
    {
      "inputs": [
        {
          "internalType": "address",
          "name": "addr",
          "type": "address"
        }
      ],
      "name": "check_send_audio",
      "outputs": [
        {
          "internalType": "bytes32",
          "name": "",
          "type": "bytes32"
        }
      ],
      "stateMutability": "view",
      "type": "function",
      "constant": true
    },
    {
      "inputs": [
        {
          "internalType": "address",
          "name": "addr",
          "type": "address"
        }
      ],
      "name": "check_receive_audio",
      "outputs": [
        {
          "internalType": "bytes32",
          "name": "",
          "type": "bytes32"
        }
      ],
      "stateMutability": "view",
      "type": "function",
      "constant": true
    },
    {
      "inputs": [
        {
          "internalType": "bytes32",
          "name": "role",
          "type": "bytes32"
        },
        {
          "internalType": "address",
          "name": "account",
          "type": "address"
        }
      ],
      "name": "grantRole",
      "outputs": [],
      "stateMutability": "nonpayable",
      "type": "function"
    },
    {
      "inputs": [
        {
          "internalType": "address",
          "name": "receiver",
          "type": "address"
        }
      ],
      "name": "Grant_Video_Sender_Role",
      "outputs": [],
      "stateMutability": "nonpayable",
      "type": "function"
    },
    {
      "inputs": [
        {
          "internalType": "address",
          "name": "receiver",
          "type": "address"
        }
      ],
      "name": "Grant_Video_Receiver_Role",
      "outputs": [],
      "stateMutability": "nonpayable",
      "type": "function"
    },
    {
      "inputs": [
        {
          "internalType": "address",
          "name": "receiver",
          "type": "address"
        }
      ],
      "name": "Grant_Audio_Sender_Role",
      "outputs": [],
      "stateMutability": "nonpayable",
      "type": "function"
    },
    {
      "inputs": [
        {
          "internalType": "address",
          "name": "receiver",
          "type": "address"
        }
      ],
      "name": "Grant_Audio_Receiver_Role",
      "outputs": [],
      "stateMutability": "nonpayable",
      "type": "function"
    },
    {
      "inputs": [],
      "name": "Clear_Tokens",
      "outputs": [],
      "stateMutability": "nonpayable",
      "type": "function"
    },
    {
      "inputs": [
        {
          "internalType": "int16",
          "name": "random_num",
          "type": "int16"
        }
      ],
      "name": "Generate_Token",
      "outputs": [],
      "stateMutability": "nonpayable",
      "type": "function"
    },
    {
      "inputs": [
        {
          "internalType": "int16",
          "name": "token_val",
          "type": "int16"
        }
      ],
      "name": "Check_Token",
      "outputs": [
        {
          "internalType": "bytes32",
          "name": "",
          "type": "bytes32"
        }
      ],
      "stateMutability": "view",
      "type": "function",
      "constant": true
    },
    {
      "inputs": [],
      "name": "get_number",
      "outputs": [
        {
          "internalType": "uint256",
          "name": "",
          "type": "uint256"
        }
      ],
      "stateMutability": "view",
      "type": "function",
      "constant": true
    }
  ],
  "bytecode": "0x6080604052600067ffffffffffffffff81111562000022576200002162000426565b5b604051908082528060200260200182016040528015620000515781602001602082028036833780820191505090505b50600390805190602001906200006992919062000353565b506000600460006101000a81548161ffff021916908360010b61ffff1602179055503480156200009857600080fd5b506040516200283b3803806200283b8339818101604052810190620000be9190620004bf565b81600160006101000a81548173ffffffffffffffffffffffffffffffffffffffff021916908373ffffffffffffffffffffffffffffffffffffffff16021790555080600260006101000a81548173ffffffffffffffffffffffffffffffffffffffff021916908373ffffffffffffffffffffffffffffffffffffffff160217905550620001947f7a6f0476c81be47c43153a8247f489d53c7b2db73acdec4a13826d3990e0d366600160009054906101000a900473ffffffffffffffffffffffffffffffffffffffff16620001f060201b60201c565b620001e87f4e7ac98e8b425a1dde6c94fed7fd1bf1e29d82c564c14dc128be48e79debe21a600260009054906101000a900473ffffffffffffffffffffffffffffffffffffffff16620001f060201b60201c565b505062000506565b620002028282620002e160201b60201c565b620002dd57600160008084815260200190815260200160002060000160008373ffffffffffffffffffffffffffffffffffffffff1673ffffffffffffffffffffffffffffffffffffffff16815260200190815260200160002060006101000a81548160ff021916908315150217905550620002826200034b60201b60201c565b73ffffffffffffffffffffffffffffffffffffffff168173ffffffffffffffffffffffffffffffffffffffff16837f2f8788117e7eff1d82e926ec794901d17c78024a50270940304540a733656f0d60405160405180910390a45b5050565b600080600084815260200190815260200160002060000160008373ffffffffffffffffffffffffffffffffffffffff1673ffffffffffffffffffffffffffffffffffffffff16815260200190815260200160002060009054906101000a900460ff16905092915050565b600033905090565b82805482825590600052602060002090600f01601090048101928215620003f45791602002820160005b83821115620003c257835183826101000a81548161ffff021916908360010b61ffff16021790555092602001926002016020816001010492830192600103026200037d565b8015620003f25782816101000a81549061ffff0219169055600201602081600101049283019260010302620003c2565b505b50905062000403919062000407565b5090565b5b808211156200042257600081600090555060010162000408565b5090565b7f4e487b7100000000000000000000000000000000000000000000000000000000600052604160045260246000fd5b600080fd5b600073ffffffffffffffffffffffffffffffffffffffff82169050919050565b600062000487826200045a565b9050919050565b62000499816200047a565b8114620004a557600080fd5b50565b600081519050620004b9816200048e565b92915050565b60008060408385031215620004d957620004d862000455565b5b6000620004e985828601620004a8565b9250506020620004fc85828601620004a8565b9150509250929050565b61232580620005166000396000f3fe608060405234801561001057600080fd5b50600436106101c45760003560e01c806381d69981116100f9578063ba60e6c011610097578063e1db9f8c11610071578063e1db9f8c146104e1578063e4c3fc2314610511578063eeb4e3671461052f578063fbfe868b1461054d576101c4565b8063ba60e6c01461048b578063cef50a7c146104a9578063d547741f146104c5576101c4565b8063a217fddf116100d3578063a217fddf14610403578063a420f50e14610421578063b0aa932114610451578063b46107271461046f576101c4565b806381d69981146103ab57806391d14854146103b5578063933c1f6d146103e5576101c4565b80632ff9f489116101665780634259961c116101405780634259961c146103235780635923b81614610353578063686db8db1461037157806375f08a1b1461038f576101c4565b80632ff9f489146102cd57806336568abe146102fd57806340b749af14610319576101c4565b8063248a9ca3116101a2578063248a9ca3146102335780632635e470146102635780632a463446146102935780632f2ff15d146102b1576101c4565b806301ffc9a7146101c957806306bb6f1b146101f957806312032b2c14610215575b600080fd5b6101e360048036038101906101de9190611459565b610569565b6040516101f091906114a1565b60405180910390f35b610213600480360381019061020e919061151a565b6105e3565b005b61021d610643565b60405161022a9190611560565b60405180910390f35b61024d600480360381019061024891906115a7565b610667565b60405161025a9190611560565b60405180910390f35b61027d6004803603810190610278919061151a565b610686565b60405161028a9190611560565b60405180910390f35b61029b610719565b6040516102a89190611560565b60405180910390f35b6102cb60048036038101906102c691906115d4565b61073d565b005b6102e760048036038101906102e2919061151a565b61074b565b6040516102f49190611560565b60405180910390f35b610317600480360381019061031291906115d4565b6107de565b005b610321610861565b005b61033d6004803603810190610338919061164d565b6108d7565b60405161034a9190611560565b60405180910390f35b61035b610995565b6040516103689190611560565b60405180910390f35b6103796109b9565b6040516103869190611560565b60405180910390f35b6103a960048036038101906103a4919061151a565b6109dd565b005b6103b3610a3d565b005b6103cf60048036038101906103ca91906115d4565b610abf565b6040516103dc91906114a1565b60405180910390f35b6103ed610b29565b6040516103fa9190611560565b60405180910390f35b61040b610b4d565b6040516104189190611560565b60405180910390f35b61043b6004803603810190610436919061151a565b610b54565b6040516104489190611560565b60405180910390f35b610459610be7565b6040516104669190611560565b60405180910390f35b6104896004803603810190610484919061164d565b610c0b565b005b610493610cc1565b6040516104a09190611560565b60405180910390f35b6104c360048036038101906104be919061151a565b610ce5565b005b6104df60048036038101906104da91906115d4565b610d45565b005b6104fb60048036038101906104f6919061151a565b610d66565b6040516105089190611560565b60405180910390f35b610519610df9565b6040516105269190611560565b60405180910390f35b610537610e1d565b6040516105449190611693565b60405180910390f35b6105676004803603810190610562919061151a565b610e22565b005b60007f7965db0b000000000000000000000000000000000000000000000000000000007bffffffffffffffffffffffffffffffffffffffffffffffffffffffff1916827bffffffffffffffffffffffffffffffffffffffffffffffffffffffff191614806105dc57506105db82610e82565b5b9050919050565b61060d7f7a6f0476c81be47c43153a8247f489d53c7b2db73acdec4a13826d3990e0d36633610abf565b61061657600080fd5b6106407f3769eadea0dc8ddb9c3ffd393433d59656c529b47a8951a6cbb956dcb2628ab78261073d565b50565b7f7a6f0476c81be47c43153a8247f489d53c7b2db73acdec4a13826d3990e0d36681565b6000806000838152602001908152602001600020600101549050919050565b60006106b27f4378af9d1a279b36917461e299e6ec50e768290ce867fadcf2cece72c93ce81083610abf565b6106f1576040517f08c379a00000000000000000000000000000000000000000000000000000000081526004016106e89061170b565b60405180910390fd5b7f416363657373204772616e7465640000000000000000000000000000000000009050919050565b7f75940455852c468556787d613e47ff569bfd78f199f52b769d99ac020664a41281565b6107478282610eec565b5050565b60006107777f680991c22f2d0a25f3125c71bd0a9d40c30a0c0bfdfc24f0e7dc5f6c8cdc366a83610abf565b6107b6576040517f08c379a00000000000000000000000000000000000000000000000000000000081526004016107ad9061170b565b60405180910390fd5b7f416363657373204772616e7465640000000000000000000000000000000000009050919050565b6107e6610fcc565b73ffffffffffffffffffffffffffffffffffffffff168173ffffffffffffffffffffffffffffffffffffffff1614610853576040517f08c379a000000000000000000000000000000000000000000000000000000000815260040161084a9061179d565b60405180910390fd5b61085d8282610fd4565b5050565b61088b7f4e7ac98e8b425a1dde6c94fed7fd1bf1e29d82c564c14dc128be48e79debe21a33610abf565b61089457600080fd5b6108be7f7a6f0476c81be47c43153a8247f489d53c7b2db73acdec4a13826d3990e0d36633610abf565b6108c757600080fd5b600360006108d591906113b7565b565b600080600090505b60038054905081101561096b578260010b60038281548110610904576109036117bd565b5b90600052602060002090601091828204019190066002029054906101000a900460010b60010b03610958577f56616c6964000000000000000000000000000000000000000000000000000000915050610990565b80806109639061181b565b9150506108df565b507f4e6f742056616c6964000000000000000000000000000000000000000000000090505b919050565b7f680991c22f2d0a25f3125c71bd0a9d40c30a0c0bfdfc24f0e7dc5f6c8cdc366a81565b7f3769eadea0dc8ddb9c3ffd393433d59656c529b47a8951a6cbb956dcb2628ab781565b610a077f7a6f0476c81be47c43153a8247f489d53c7b2db73acdec4a13826d3990e0d36633610abf565b610a1057600080fd5b610a3a7f4378af9d1a279b36917461e299e6ec50e768290ce867fadcf2cece72c93ce8108261073d565b50565b7f442d9755070033d6d73fc03299e915257017a87c482f33724c8c4a5787bc38bf600160009054906101000a900473ffffffffffffffffffffffffffffffffffffffff16600260009054906101000a900473ffffffffffffffffffffffffffffffffffffffff166003604051610ab593929190611f85565b60405180910390a1565b600080600084815260200190815260200160002060000160008373ffffffffffffffffffffffffffffffffffffffff1673ffffffffffffffffffffffffffffffffffffffff16815260200190815260200160002060009054906101000a900460ff16905092915050565b7f4e7ac98e8b425a1dde6c94fed7fd1bf1e29d82c564c14dc128be48e79debe21a81565b6000801b81565b6000610b807f3769eadea0dc8ddb9c3ffd393433d59656c529b47a8951a6cbb956dcb2628ab783610abf565b610bbf576040517f08c379a0000000000000000000000000000000000000000000000000000000008152600401610bb69061170b565b60405180910390fd5b7f416363657373204772616e7465640000000000000000000000000000000000009050919050565b7f8ee64a598a4ce5fab41cc4ef32822f06b941ff81447cea36f08c218614cf7c8581565b610c357f4e7ac98e8b425a1dde6c94fed7fd1bf1e29d82c564c14dc128be48e79debe21a33610abf565b610c3e57600080fd5b610c687f7a6f0476c81be47c43153a8247f489d53c7b2db73acdec4a13826d3990e0d36633610abf565b610c7157600080fd5b60038190806001815401808255809150506001900390600052602060002090601091828204019190066002029091909190916101000a81548161ffff021916908360010b61ffff16021790555050565b7f4378af9d1a279b36917461e299e6ec50e768290ce867fadcf2cece72c93ce81081565b610d0f7f4e7ac98e8b425a1dde6c94fed7fd1bf1e29d82c564c14dc128be48e79debe21a33610abf565b610d1857600080fd5b610d427f85a28af39f6e376550a9af7adef1cb0fd4c93a83c4a54f51458173248f827bb88261073d565b50565b610d4e82610667565b610d57816110b5565b610d618383610fd4565b505050565b6000610d927f85a28af39f6e376550a9af7adef1cb0fd4c93a83c4a54f51458173248f827bb883610abf565b610dd1576040517f08c379a0000000000000000000000000000000000000000000000000000000008152600401610dc89061170b565b60405180910390fd5b7f416363657373204772616e7465640000000000000000000000000000000000009050919050565b7f85a28af39f6e376550a9af7adef1cb0fd4c93a83c4a54f51458173248f827bb881565b600090565b610e4c7f4e7ac98e8b425a1dde6c94fed7fd1bf1e29d82c564c14dc128be48e79debe21a33610abf565b610e5557600080fd5b610e7f7f680991c22f2d0a25f3125c71bd0a9d40c30a0c0bfdfc24f0e7dc5f6c8cdc366a8261073d565b50565b60007f01ffc9a7000000000000000000000000000000000000000000000000000000007bffffffffffffffffffffffffffffffffffffffffffffffffffffffff1916827bffffffffffffffffffffffffffffffffffffffffffffffffffffffff1916149050919050565b610ef68282610abf565b610fc857600160008084815260200190815260200160002060000160008373ffffffffffffffffffffffffffffffffffffffff1673ffffffffffffffffffffffffffffffffffffffff16815260200190815260200160002060006101000a81548160ff021916908315150217905550610f6d610fcc565b73ffffffffffffffffffffffffffffffffffffffff168173ffffffffffffffffffffffffffffffffffffffff16837f2f8788117e7eff1d82e926ec794901d17c78024a50270940304540a733656f0d60405160405180910390a45b5050565b600033905090565b610fde8282610abf565b156110b157600080600084815260200190815260200160002060000160008373ffffffffffffffffffffffffffffffffffffffff1673ffffffffffffffffffffffffffffffffffffffff16815260200190815260200160002060006101000a81548160ff021916908315150217905550611056610fcc565b73ffffffffffffffffffffffffffffffffffffffff168173ffffffffffffffffffffffffffffffffffffffff16837ff6391f5c32d9c69d2a47ea670b442974b53935d1edc7fd64eb21e047a839171b60405160405180910390a45b5050565b6110c6816110c1610fcc565b6110c9565b50565b6110d38282610abf565b61114a576110e08161114e565b6110ee8360001c602061117b565b6040516020016110ff9291906120d5565b6040516020818303038152906040526040517f08c379a00000000000000000000000000000000000000000000000000000000081526004016111419190612159565b60405180910390fd5b5050565b60606111748273ffffffffffffffffffffffffffffffffffffffff16601460ff1661117b565b9050919050565b60606000600283600261118e919061217b565b61119891906121d5565b67ffffffffffffffff8111156111b1576111b061222b565b5b6040519080825280601f01601f1916602001820160405280156111e35781602001600182028036833780820191505090505b5090507f30000000000000000000000000000000000000000000000000000000000000008160008151811061121b5761121a6117bd565b5b60200101907effffffffffffffffffffffffffffffffffffffffffffffffffffffffffffff1916908160001a9053507f78000000000000000000000000000000000000000000000000000000000000008160018151811061127f5761127e6117bd565b5b60200101907effffffffffffffffffffffffffffffffffffffffffffffffffffffffffffff1916908160001a905350600060018460026112bf919061217b565b6112c991906121d5565b90505b6001811115611369577f3031323334353637383961626364656600000000000000000000000000000000600f86166010811061130b5761130a6117bd565b5b1a60f81b828281518110611322576113216117bd565b5b60200101907effffffffffffffffffffffffffffffffffffffffffffffffffffffffffffff1916908160001a905350600485901c9450806113629061225a565b90506112cc565b50600084146113ad576040517f08c379a00000000000000000000000000000000000000000000000000000000081526004016113a4906122cf565b60405180910390fd5b8091505092915050565b50805460008255600f0160109004906000526020600020908101906113dc91906113df565b50565b5b808211156113f85760008160009055506001016113e0565b5090565b600080fd5b60007fffffffff0000000000000000000000000000000000000000000000000000000082169050919050565b61143681611401565b811461144157600080fd5b50565b6000813590506114538161142d565b92915050565b60006020828403121561146f5761146e6113fc565b5b600061147d84828501611444565b91505092915050565b60008115159050919050565b61149b81611486565b82525050565b60006020820190506114b66000830184611492565b92915050565b600073ffffffffffffffffffffffffffffffffffffffff82169050919050565b60006114e7826114bc565b9050919050565b6114f7816114dc565b811461150257600080fd5b50565b600081359050611514816114ee565b92915050565b6000602082840312156115305761152f6113fc565b5b600061153e84828501611505565b91505092915050565b6000819050919050565b61155a81611547565b82525050565b60006020820190506115756000830184611551565b92915050565b61158481611547565b811461158f57600080fd5b50565b6000813590506115a18161157b565b92915050565b6000602082840312156115bd576115bc6113fc565b5b60006115cb84828501611592565b91505092915050565b600080604083850312156115eb576115ea6113fc565b5b60006115f985828601611592565b925050602061160a85828601611505565b9150509250929050565b60008160010b9050919050565b61162a81611614565b811461163557600080fd5b50565b60008135905061164781611621565b92915050565b600060208284031215611663576116626113fc565b5b600061167184828501611638565b91505092915050565b6000819050919050565b61168d8161167a565b82525050565b60006020820190506116a86000830184611684565b92915050565b600082825260208201905092915050565b7f4163636573732044656e69656400000000000000000000000000000000000000600082015250565b60006116f5600d836116ae565b9150611700826116bf565b602082019050919050565b60006020820190508181036000830152611724816116e8565b9050919050565b7f416363657373436f6e74726f6c3a2063616e206f6e6c792072656e6f756e636560008201527f20726f6c657320666f722073656c660000000000000000000000000000000000602082015250565b6000611787602f836116ae565b91506117928261172b565b604082019050919050565b600060208201905081810360008301526117b68161177a565b9050919050565b7f4e487b7100000000000000000000000000000000000000000000000000000000600052603260045260246000fd5b7f4e487b7100000000000000000000000000000000000000000000000000000000600052601160045260246000fd5b60006118268261167a565b91507fffffffffffffffffffffffffffffffffffffffffffffffffffffffffffffffff8203611858576118576117ec565b5b600182019050919050565b61186c816114dc565b82525050565b600081549050919050565b600082825260208201905092915050565b60008190508160005260206000209050919050565b6118ac81611614565b82525050565b60008160001c9050919050565b60008160010b9050919050565b60006118df6118da836118b2565b6118bf565b9050919050565b60008160101c9050919050565b6000611906611901836118e6565b6118bf565b9050919050565b60008160201c9050919050565b600061192d6119288361190d565b6118bf565b9050919050565b60008160301c9050919050565b600061195461194f83611934565b6118bf565b9050919050565b60008160401c9050919050565b600061197b6119768361195b565b6118bf565b9050919050565b60008160501c9050919050565b60006119a261199d83611982565b6118bf565b9050919050565b60008160601c9050919050565b60006119c96119c4836119a9565b6118bf565b9050919050565b60008160701c9050919050565b60006119f06119eb836119d0565b6118bf565b9050919050565b60008160801c9050919050565b6000611a17611a12836119f7565b6118bf565b9050919050565b60008160901c9050919050565b6000611a3e611a3983611a1e565b6118bf565b9050919050565b60008160a01c9050919050565b6000611a65611a6083611a45565b6118bf565b9050919050565b60008160b01c9050919050565b6000611a8c611a8783611a6c565b6118bf565b9050919050565b60008160c01c9050919050565b6000611ab3611aae83611a93565b6118bf565b9050919050565b60008160d01c9050919050565b6000611ada611ad583611aba565b6118bf565b9050919050565b60008160e01c9050919050565b6000611b01611afc83611ae1565b6118bf565b9050919050565b60008160f01c9050919050565b6000611b28611b2383611b08565b6118bf565b9050919050565b6000611b3a82611872565b611b44818561187d565b935083611b508461188e565b6000600115611cfd575b83600160100382011015611cfc578154611b7c88611b77836118cc565b6118a3565b602088019750611b9488611b8f836118f3565b6118a3565b602088019750611bac88611ba78361191a565b6118a3565b602088019750611bc488611bbf83611941565b6118a3565b602088019750611bdc88611bd783611968565b6118a3565b602088019750611bf488611bef8361198f565b6118a3565b602088019750611c0c88611c07836119b6565b6118a3565b602088019750611c2488611c1f836119dd565b6118a3565b602088019750611c3c88611c3783611a04565b6118a3565b602088019750611c5488611c4f83611a2b565b6118a3565b602088019750611c6c88611c6783611a52565b6118a3565b602088019750611c8488611c7f83611a79565b6118a3565b602088019750611c9c88611c9783611aa0565b6118a3565b602088019750611cb488611caf83611ac7565b6118a3565b602088019750611ccc88611cc783611aee565b6118a3565b602088019750611ce488611cdf83611b15565b6118a3565b60208801975060018301925050601081019050611b5a565b5b600115611f7857815484821015611d2d57611d2088611d1b836118cc565b6118a3565b6020880197506001820191505b84821015611d5457611d4788611d42836118f3565b6118a3565b6020880197506001820191505b84821015611d7b57611d6e88611d698361191a565b6118a3565b6020880197506001820191505b84821015611da257611d9588611d9083611941565b6118a3565b6020880197506001820191505b84821015611dc957611dbc88611db783611968565b6118a3565b6020880197506001820191505b84821015611df057611de388611dde8361198f565b6118a3565b6020880197506001820191505b84821015611e1757611e0a88611e05836119b6565b6118a3565b6020880197506001820191505b84821015611e3e57611e3188611e2c836119dd565b6118a3565b6020880197506001820191505b84821015611e6557611e5888611e5383611a04565b6118a3565b6020880197506001820191505b84821015611e8c57611e7f88611e7a83611a2b565b6118a3565b6020880197506001820191505b84821015611eb357611ea688611ea183611a52565b6118a3565b6020880197506001820191505b84821015611eda57611ecd88611ec883611a79565b6118a3565b6020880197506001820191505b84821015611f0157611ef488611eef83611aa0565b6118a3565b6020880197506001820191505b84821015611f2857611f1b88611f1683611ac7565b6118a3565b6020880197506001820191505b84821015611f4f57611f4288611f3d83611aee565b6118a3565b6020880197506001820191505b84821015611f7657611f6988611f6483611b15565b6118a3565b6020880197506001820191505b505b8694505050505092915050565b6000606082019050611f9a6000830186611863565b611fa76020830185611863565b8181036040830152611fb98184611b2f565b9050949350505050565b600081905092915050565b7f416363657373436f6e74726f6c3a206163636f756e7420000000000000000000600082015250565b6000612004601783611fc3565b915061200f82611fce565b601782019050919050565b600081519050919050565b60005b83811015612043578082015181840152602081019050612028565b83811115612052576000848401525b50505050565b60006120638261201a565b61206d8185611fc3565b935061207d818560208601612025565b80840191505092915050565b7f206973206d697373696e6720726f6c6520000000000000000000000000000000600082015250565b60006120bf601183611fc3565b91506120ca82612089565b601182019050919050565b60006120e082611ff7565b91506120ec8285612058565b91506120f7826120b2565b91506121038284612058565b91508190509392505050565b6000601f19601f8301169050919050565b600061212b8261201a565b61213581856116ae565b9350612145818560208601612025565b61214e8161210f565b840191505092915050565b600060208201905081810360008301526121738184612120565b905092915050565b60006121868261167a565b91506121918361167a565b9250817fffffffffffffffffffffffffffffffffffffffffffffffffffffffffffffffff04831182151516156121ca576121c96117ec565b5b828202905092915050565b60006121e08261167a565b91506121eb8361167a565b9250827fffffffffffffffffffffffffffffffffffffffffffffffffffffffffffffffff038211156122205761221f6117ec565b5b828201905092915050565b7f4e487b7100000000000000000000000000000000000000000000000000000000600052604160045260246000fd5b60006122658261167a565b915060008203612278576122776117ec565b5b600182039050919050565b7f537472696e67733a20686578206c656e67746820696e73756666696369656e74600082015250565b60006122b96020836116ae565b91506122c482612283565b602082019050919050565b600060208201905081810360008301526122e8816122ac565b905091905056fea2646970667358221220fb638f9853a3d9b0020c8b22c9ffb86c492aefaf5896f07bb6f7003bfb9a2ba464736f6c634300080f0033",
  "immutableReferences": {},
  "source": "// SPDX-License-Identifier: GPL-3.0\n\npragma solidity >=0.3.0 <0.9.0;\n\nimport \"../node_modules/@openzeppelin/contracts/access/AccessControl.sol\";\nimport \"../node_modules/@openzeppelin/contracts/access/Ownable.sol\";\n\n// import \"@openzeppelin/contracts/access/Roles.sol\";\n\ncontract Policy is AccessControl {\n\n    bytes32 public constant VIDEO_WORKSPACE_ADMIN = keccak256(\"VIDEO_WORKSPACE_ADMIN\");\n    bytes32 public constant AUDIO_WORKSPACE_ADMIN = keccak256(\"AUDIO_WORKSPACE_ADMIN\");\n\n    bytes32 public constant SEND_VIDEO = keccak256(\"VIDEO_SENDER_ROLE\");\n    bytes32 public constant RECEIVE_VIDEO = keccak256(\"VIDEO_RECEIVER_ROLE\");\n    bytes32 public constant SEND_AUDIO = keccak256(\"AUDIO_SENDER_ROLE\");\n    bytes32 public constant RECEIVE_AUDIO = keccak256(\"AUDIO_RECEIVER_ROLE\");\n    bytes32 public constant SEND_TEXT = keccak256(\"TEXT_SENDER_ROLE\");\n    bytes32 public constant RECEIVE_TEXT = keccak256(\"TEXT_RECEIVER_ROLE\");\n\n    address video_admin;\n    address audio_admin;\n\n    int16[] tokens = new int16[](0);\n\n    int16 counter = 0;\n\n    event MyEvent (\n        address video_admin_event,\n        address audio_admin_event,\n        int16[] tokens\n    );\n    \n    event AuthTokens (\n        bytes32 tokens\n    );\n\n    constructor(address default_video_admin, address default_audio_admin) {\n\n        video_admin = default_video_admin;\n        audio_admin = default_audio_admin;\n\n        _grantRole(VIDEO_WORKSPACE_ADMIN, video_admin);\n        _grantRole(AUDIO_WORKSPACE_ADMIN, audio_admin);\n\n    }\n\n    // function push_new_token() external{\n    //     // counter++;\n    //     // tokens.push(counter);\n    // }\n\n    function get_default_admins() external {\n        // counter++;\n        // tokens.push(counter);\n        emit MyEvent(video_admin, audio_admin, tokens);\n        // emit MyEvent(video_admin);\n    }\n\n    function check_send_video(address addr) public view returns(bytes32) {\n        require(hasRole(SEND_VIDEO, addr), \"Access Denied\");\n        return \"Access Granted\";\n    }\n\n    function check_receive_video(address addr) public view returns(bytes32) {\n        require(hasRole(RECEIVE_VIDEO, addr), \"Access Denied\");\n        return \"Access Granted\";\n    }\n\n    function check_send_audio(address addr) public view returns(bytes32) {\n        require(hasRole(SEND_AUDIO, addr), \"Access Denied\");\n        return \"Access Granted\";\n    }\n\n    function check_receive_audio(address addr) public view returns(bytes32) {\n        require(hasRole(RECEIVE_AUDIO, addr), \"Access Denied\");\n        return \"Access Granted\";\n    }\n\n    function grantRole(bytes32 role, address account) public override  {\n        _grantRole(role, account);\n    }\n\n    function Grant_Video_Sender_Role(address receiver) public {\n        require(hasRole(VIDEO_WORKSPACE_ADMIN, msg.sender));\n        grantRole(SEND_VIDEO, receiver);\n    }\n\n    function Grant_Video_Receiver_Role(address receiver) public {\n        require(hasRole(VIDEO_WORKSPACE_ADMIN, msg.sender));\n        grantRole(RECEIVE_VIDEO, receiver);\n    }\n\n    function Grant_Audio_Sender_Role(address receiver) public {\n        require(hasRole(AUDIO_WORKSPACE_ADMIN, msg.sender));\n        grantRole(SEND_AUDIO, receiver);\n    }\n\n    function Grant_Audio_Receiver_Role(address receiver) public {\n        require(hasRole(AUDIO_WORKSPACE_ADMIN, msg.sender));\n        grantRole(RECEIVE_AUDIO, receiver);\n    }\n\n    function Clear_Tokens() public {\n        require(hasRole(AUDIO_WORKSPACE_ADMIN, msg.sender));\n        require(hasRole(VIDEO_WORKSPACE_ADMIN, msg.sender));\n        delete tokens;\n    }\n\n    function Generate_Token(int16 random_num) public {\n        require(hasRole(AUDIO_WORKSPACE_ADMIN, msg.sender));\n        require(hasRole(VIDEO_WORKSPACE_ADMIN, msg.sender));\n        tokens.push(random_num);\n    }\n\n    function Check_Token(int16 token_val) public view returns(bytes32) {\n        for (uint i=0; i<tokens.length; i++) {\n            if (tokens[i] == token_val) {\n                return \"Valid\";\n            }\n        }\n        return \"Not Valid\";\n    }\n\n    function get_number() public view returns(uint) {\n        return 0;\n    }\n\n}",
  "sourcePath": "/Users/zack/Documents/web3_blockchain/Access_Control_Contract/contracts/Policy.sol",
  "compiler": {
    "name": "solc",
    "version": "0.8.15+commit.e14f2714.Emscripten.clang"
  },
  "schemaVersion": "3.4.14",
  "updatedAt": "2023-05-30T00:40:26.621Z",
  "networkType": "ethereum",
  "devdoc": {
    "kind": "dev",
    "methods": {
      "getRoleAdmin(bytes32)": {
        "details": "Returns the admin role that controls `role`. See {grantRole} and {revokeRole}. To change a role's admin, use {_setRoleAdmin}."
      },
      "grantRole(bytes32,address)": {
        "details": "Grants `role` to `account`. If `account` had not been already granted `role`, emits a {RoleGranted} event. Requirements: - the caller must have ``role``'s admin role. May emit a {RoleGranted} event."
      },
      "hasRole(bytes32,address)": {
        "details": "Returns `true` if `account` has been granted `role`."
      },
      "renounceRole(bytes32,address)": {
        "details": "Revokes `role` from the calling account. Roles are often managed via {grantRole} and {revokeRole}: this function's purpose is to provide a mechanism for accounts to lose their privileges if they are compromised (such as when a trusted device is misplaced). If the calling account had been revoked `role`, emits a {RoleRevoked} event. Requirements: - the caller must be `account`. May emit a {RoleRevoked} event."
      },
      "revokeRole(bytes32,address)": {
        "details": "Revokes `role` from `account`. If `account` had been granted `role`, emits a {RoleRevoked} event. Requirements: - the caller must have ``role``'s admin role. May emit a {RoleRevoked} event."
      },
      "supportsInterface(bytes4)": {
        "details": "See {IERC165-supportsInterface}."
      }
    },
    "version": 1
  },
  "userdoc": {
    "kind": "user",
    "methods": {},
    "version": 1
  }
}