{
  "contractName": "Policy",
  "abi": [
    {
      "inputs": [
        {
          "internalType": "address",
          "name": "default_video_admin",
          "type": "address"
        },
        {
          "internalType": "address",
          "name": "default_audio_admin",
          "type": "address"
        }
      ],
      "stateMutability": "nonpayable",
      "type": "constructor"
    },
    {
      "anonymous": false,
      "inputs": [
        {
          "indexed": false,
          "internalType": "bytes32",
          "name": "tokens",
          "type": "bytes32"
        }
      ],
      "name": "AuthTokens",
      "type": "event"
    },
    {
      "anonymous": false,
      "inputs": [
        {
          "indexed": false,
          "internalType": "address",
          "name": "video_admin_event",
          "type": "address"
        },
        {
          "indexed": false,
          "internalType": "address",
          "name": "audio_admin_event",
          "type": "address"
        },
        {
          "indexed": false,
          "internalType": "int16[]",
          "name": "tokens",
          "type": "int16[]"
        }
      ],
      "name": "MyEvent",
      "type": "event"
    },
    {
      "anonymous": false,
      "inputs": [
        {
          "indexed": true,
          "internalType": "bytes32",
          "name": "role",
          "type": "bytes32"
        },
        {
          "indexed": true,
          "internalType": "bytes32",
          "name": "previousAdminRole",
          "type": "bytes32"
        },
        {
          "indexed": true,
          "internalType": "bytes32",
          "name": "newAdminRole",
          "type": "bytes32"
        }
      ],
      "name": "RoleAdminChanged",
      "type": "event"
    },
    {
      "anonymous": false,
      "inputs": [
        {
          "indexed": true,
          "internalType": "bytes32",
          "name": "role",
          "type": "bytes32"
        },
        {
          "indexed": true,
          "internalType": "address",
          "name": "account",
          "type": "address"
        },
        {
          "indexed": true,
          "internalType": "address",
          "name": "sender",
          "type": "address"
        }
      ],
      "name": "RoleGranted",
      "type": "event"
    },
    {
      "anonymous": false,
      "inputs": [
        {
          "indexed": true,
          "internalType": "bytes32",
          "name": "role",
          "type": "bytes32"
        },
        {
          "indexed": true,
          "internalType": "address",
          "name": "account",
          "type": "address"
        },
        {
          "indexed": true,
          "internalType": "address",
          "name": "sender",
          "type": "address"
        }
      ],
      "name": "RoleRevoked",
      "type": "event"
    },
    {
      "inputs": [],
      "name": "AUDIO_WORKSPACE_ADMIN",
      "outputs": [
        {
          "internalType": "bytes32",
          "name": "",
          "type": "bytes32"
        }
      ],
      "stateMutability": "view",
      "type": "function",
      "constant": true
    },
    {
      "inputs": [],
      "name": "DEFAULT_ADMIN_ROLE",
      "outputs": [
        {
          "internalType": "bytes32",
          "name": "",
          "type": "bytes32"
        }
      ],
      "stateMutability": "view",
      "type": "function",
      "constant": true
    },
    {
      "inputs": [],
      "name": "RECEIVE_AUDIO",
      "outputs": [
        {
          "internalType": "bytes32",
          "name": "",
          "type": "bytes32"
        }
      ],
      "stateMutability": "view",
      "type": "function",
      "constant": true
    },
    {
      "inputs": [],
      "name": "RECEIVE_TEXT",
      "outputs": [
        {
          "internalType": "bytes32",
          "name": "",
          "type": "bytes32"
        }
      ],
      "stateMutability": "view",
      "type": "function",
      "constant": true
    },
    {
      "inputs": [],
      "name": "RECEIVE_VIDEO",
      "outputs": [
        {
          "internalType": "bytes32",
          "name": "",
          "type": "bytes32"
        }
      ],
      "stateMutability": "view",
      "type": "function",
      "constant": true
    },
    {
      "inputs": [],
      "name": "SEND_AUDIO",
      "outputs": [
        {
          "internalType": "bytes32",
          "name": "",
          "type": "bytes32"
        }
      ],
      "stateMutability": "view",
      "type": "function",
      "constant": true
    },
    {
      "inputs": [],
      "name": "SEND_TEXT",
      "outputs": [
        {
          "internalType": "bytes32",
          "name": "",
          "type": "bytes32"
        }
      ],
      "stateMutability": "view",
      "type": "function",
      "constant": true
    },
    {
      "inputs": [],
      "name": "SEND_VIDEO",
      "outputs": [
        {
          "internalType": "bytes32",
          "name": "",
          "type": "bytes32"
        }
      ],
      "stateMutability": "view",
      "type": "function",
      "constant": true
    },
    {
      "inputs": [],
      "name": "VIDEO_WORKSPACE_ADMIN",
      "outputs": [
        {
          "internalType": "bytes32",
          "name": "",
          "type": "bytes32"
        }
      ],
      "stateMutability": "view",
      "type": "function",
      "constant": true
    },
    {
      "inputs": [
        {
          "internalType": "bytes32",
          "name": "role",
          "type": "bytes32"
        }
      ],
      "name": "getRoleAdmin",
      "outputs": [
        {
          "internalType": "bytes32",
          "name": "",
          "type": "bytes32"
        }
      ],
      "stateMutability": "view",
      "type": "function",
      "constant": true
    },
    {
      "inputs": [
        {
          "internalType": "bytes32",
          "name": "role",
          "type": "bytes32"
        },
        {
          "internalType": "address",
          "name": "account",
          "type": "address"
        }
      ],
      "name": "hasRole",
      "outputs": [
        {
          "internalType": "bool",
          "name": "",
          "type": "bool"
        }
      ],
      "stateMutability": "view",
      "type": "function",
      "constant": true
    },
    {
      "inputs": [
        {
          "internalType": "bytes32",
          "name": "role",
          "type": "bytes32"
        },
        {
          "internalType": "address",
          "name": "account",
          "type": "address"
        }
      ],
      "name": "renounceRole",
      "outputs": [],
      "stateMutability": "nonpayable",
      "type": "function"
    },
    {
      "inputs": [
        {
          "internalType": "bytes32",
          "name": "role",
          "type": "bytes32"
        },
        {
          "internalType": "address",
          "name": "account",
          "type": "address"
        }
      ],
      "name": "revokeRole",
      "outputs": [],
      "stateMutability": "nonpayable",
      "type": "function"
    },
    {
      "inputs": [
        {
          "internalType": "bytes4",
          "name": "interfaceId",
          "type": "bytes4"
        }
      ],
      "name": "supportsInterface",
      "outputs": [
        {
          "internalType": "bool",
          "name": "",
          "type": "bool"
        }
      ],
      "stateMutability": "view",
      "type": "function",
      "constant": true
    },
    {
      "inputs": [],
      "name": "get_default_admins",
      "outputs": [],
      "stateMutability": "nonpayable",
      "type": "function"
    },
    {
      "inputs": [
        {
          "internalType": "address",
          "name": "addr",
          "type": "address"
        }
      ],
      "name": "check_send_video",
      "outputs": [
        {
          "internalType": "bytes32",
          "name": "",
          "type": "bytes32"
        }
      ],
      "stateMutability": "view",
      "type": "function",
      "constant": true
    },
    {
      "inputs": [
        {
          "internalType": "address",
          "name": "addr",
          "type": "address"
        }
      ],
      "name": "check_receive_video",
      "outputs": [
        {
          "internalType": "bytes32",
          "name": "",
          "type": "bytes32"
        }
      ],
      "stateMutability": "view",
      "type": "function",
      "constant": true
    },
    {
      "inputs": [
        {
          "internalType": "address",
          "name": "addr",
          "type": "address"
        }
      ],
      "name": "check_send_audio",
      "outputs": [
        {
          "internalType": "bytes32",
          "name": "",
          "type": "bytes32"
        }
      ],
      "stateMutability": "view",
      "type": "function",
      "constant": true
    },
    {
      "inputs": [
        {
          "internalType": "address",
          "name": "addr",
          "type": "address"
        }
      ],
      "name": "check_receive_audio",
      "outputs": [
        {
          "internalType": "bytes32",
          "name": "",
          "type": "bytes32"
        }
      ],
      "stateMutability": "view",
      "type": "function",
      "constant": true
    },
    {
      "inputs": [
        {
          "internalType": "bytes32",
          "name": "role",
          "type": "bytes32"
        },
        {
          "internalType": "address",
          "name": "account",
          "type": "address"
        }
      ],
      "name": "grantRole",
      "outputs": [],
      "stateMutability": "nonpayable",
      "type": "function"
    },
    {
      "inputs": [
        {
          "internalType": "address",
          "name": "receiver",
          "type": "address"
        }
      ],
      "name": "Grant_Video_Sender_Role",
      "outputs": [],
      "stateMutability": "nonpayable",
      "type": "function"
    },
    {
      "inputs": [
        {
          "internalType": "address",
          "name": "receiver",
          "type": "address"
        }
      ],
      "name": "Grant_Video_Receiver_Role",
      "outputs": [],
      "stateMutability": "nonpayable",
      "type": "function"
    },
    {
      "inputs": [
        {
          "internalType": "address",
          "name": "receiver",
          "type": "address"
        }
      ],
      "name": "Grant_Audio_Sender_Role",
      "outputs": [],
      "stateMutability": "nonpayable",
      "type": "function"
    },
    {
      "inputs": [
        {
          "internalType": "address",
          "name": "receiver",
          "type": "address"
        }
      ],
      "name": "Grant_Audio_Receiver_Role",
      "outputs": [],
      "stateMutability": "nonpayable",
      "type": "function"
    },
    {
      "inputs": [],
      "name": "Clear_Tokens",
      "outputs": [],
      "stateMutability": "nonpayable",
      "type": "function"
    },
    {
      "inputs": [
        {
          "internalType": "int16",
          "name": "random_num",
          "type": "int16"
        }
      ],
      "name": "Generate_Token",
      "outputs": [],
      "stateMutability": "nonpayable",
      "type": "function"
    },
    {
      "inputs": [
        {
          "internalType": "int16",
          "name": "token_val",
          "type": "int16"
        }
      ],
      "name": "Check_Token",
      "outputs": [
        {
          "internalType": "bytes32",
          "name": "",
          "type": "bytes32"
        }
      ],
      "stateMutability": "view",
      "type": "function",
      "constant": true
    },
    {
      "inputs": [],
      "name": "get_number",
      "outputs": [
        {
          "internalType": "uint256",
          "name": "",
          "type": "uint256"
        }
      ],
      "stateMutability": "view",
      "type": "function",
      "constant": true
    }
  ],
  "bytecode": "0x6080604052600067ffffffffffffffff81111562000022576200002162000426565b5b604051908082528060200260200182016040528015620000515781602001602082028036833780820191505090505b50600390805190602001906200006992919062000353565b506000600460006101000a81548161ffff021916908360010b61ffff1602179055503480156200009857600080fd5b50604051620028fe380380620028fe8339818101604052810190620000be9190620004bf565b81600160006101000a81548173ffffffffffffffffffffffffffffffffffffffff021916908373ffffffffffffffffffffffffffffffffffffffff16021790555080600260006101000a81548173ffffffffffffffffffffffffffffffffffffffff021916908373ffffffffffffffffffffffffffffffffffffffff160217905550620001947f7a6f0476c81be47c43153a8247f489d53c7b2db73acdec4a13826d3990e0d366600160009054906101000a900473ffffffffffffffffffffffffffffffffffffffff16620001f060201b60201c565b620001e87f4e7ac98e8b425a1dde6c94fed7fd1bf1e29d82c564c14dc128be48e79debe21a600260009054906101000a900473ffffffffffffffffffffffffffffffffffffffff16620001f060201b60201c565b505062000506565b620002028282620002e160201b60201c565b620002dd57600160008084815260200190815260200160002060000160008373ffffffffffffffffffffffffffffffffffffffff1673ffffffffffffffffffffffffffffffffffffffff16815260200190815260200160002060006101000a81548160ff021916908315150217905550620002826200034b60201b60201c565b73ffffffffffffffffffffffffffffffffffffffff168173ffffffffffffffffffffffffffffffffffffffff16837f2f8788117e7eff1d82e926ec794901d17c78024a50270940304540a733656f0d60405160405180910390a45b5050565b600080600084815260200190815260200160002060000160008373ffffffffffffffffffffffffffffffffffffffff1673ffffffffffffffffffffffffffffffffffffffff16815260200190815260200160002060009054906101000a900460ff16905092915050565b600033905090565b82805482825590600052602060002090600f01601090048101928215620003f45791602002820160005b83821115620003c257835183826101000a81548161ffff021916908360010b61ffff16021790555092602001926002016020816001010492830192600103026200037d565b8015620003f25782816101000a81549061ffff0219169055600201602081600101049283019260010302620003c2565b505b50905062000403919062000407565b5090565b5b808211156200042257600081600090555060010162000408565b5090565b7f4e487b7100000000000000000000000000000000000000000000000000000000600052604160045260246000fd5b600080fd5b600073ffffffffffffffffffffffffffffffffffffffff82169050919050565b600062000487826200045a565b9050919050565b62000499816200047a565b8114620004a557600080fd5b50565b600081519050620004b9816200048e565b92915050565b60008060408385031215620004d957620004d862000455565b5b6000620004e985828601620004a8565b9250506020620004fc85828601620004a8565b9150509250929050565b6123e880620005166000396000f3fe608060405234801561001057600080fd5b50600436106101c45760003560e01c806381d69981116100f9578063ba60e6c011610097578063e1db9f8c11610071578063e1db9f8c146104e1578063e4c3fc2314610511578063eeb4e3671461052f578063fbfe868b1461054d576101c4565b8063ba60e6c01461048b578063cef50a7c146104a9578063d547741f146104c5576101c4565b8063a217fddf116100d3578063a217fddf14610403578063a420f50e14610421578063b0aa932114610451578063b46107271461046f576101c4565b806381d69981146103ab57806391d14854146103b5578063933c1f6d146103e5576101c4565b80632ff9f489116101665780634259961c116101405780634259961c146103235780635923b81614610353578063686db8db1461037157806375f08a1b1461038f576101c4565b80632ff9f489146102cd57806336568abe146102fd57806340b749af14610319576101c4565b8063248a9ca3116101a2578063248a9ca3146102335780632635e470146102635780632a463446146102935780632f2ff15d146102b1576101c4565b806301ffc9a7146101c957806306bb6f1b146101f957806312032b2c14610215575b600080fd5b6101e360048036038101906101de91906114f2565b610569565b6040516101f0919061153a565b60405180910390f35b610213600480360381019061020e91906115b3565b6105e3565b005b61021d610643565b60405161022a91906115f9565b60405180910390f35b61024d60048036038101906102489190611640565b610667565b60405161025a91906115f9565b60405180910390f35b61027d600480360381019061027891906115b3565b610686565b60405161028a91906115f9565b60405180910390f35b61029b610719565b6040516102a891906115f9565b60405180910390f35b6102cb60048036038101906102c6919061166d565b61073d565b005b6102e760048036038101906102e291906115b3565b61074b565b6040516102f491906115f9565b60405180910390f35b6103176004803603810190610312919061166d565b6107de565b005b610321610861565b005b61033d600480360381019061033891906116e6565b6108d7565b60405161034a91906115f9565b60405180910390f35b61035b610995565b60405161036891906115f9565b60405180910390f35b6103796109b9565b60405161038691906115f9565b60405180910390f35b6103a960048036038101906103a491906115b3565b6109dd565b005b6103b3610a3d565b005b6103cf60048036038101906103ca919061166d565b610b58565b6040516103dc919061153a565b60405180910390f35b6103ed610bc2565b6040516103fa91906115f9565b60405180910390f35b61040b610be6565b60405161041891906115f9565b60405180910390f35b61043b600480360381019061043691906115b3565b610bed565b60405161044891906115f9565b60405180910390f35b610459610c80565b60405161046691906115f9565b60405180910390f35b610489600480360381019061048491906116e6565b610ca4565b005b610493610d5a565b6040516104a091906115f9565b60405180910390f35b6104c360048036038101906104be91906115b3565b610d7e565b005b6104df60048036038101906104da919061166d565b610dde565b005b6104fb60048036038101906104f691906115b3565b610dff565b60405161050891906115f9565b60405180910390f35b610519610e92565b60405161052691906115f9565b60405180910390f35b610537610eb6565b604051610544919061172c565b60405180910390f35b610567600480360381019061056291906115b3565b610ebb565b005b60007f7965db0b000000000000000000000000000000000000000000000000000000007bffffffffffffffffffffffffffffffffffffffffffffffffffffffff1916827bffffffffffffffffffffffffffffffffffffffffffffffffffffffff191614806105dc57506105db82610f1b565b5b9050919050565b61060d7f7a6f0476c81be47c43153a8247f489d53c7b2db73acdec4a13826d3990e0d36633610b58565b61061657600080fd5b6106407f3769eadea0dc8ddb9c3ffd393433d59656c529b47a8951a6cbb956dcb2628ab78261073d565b50565b7f7a6f0476c81be47c43153a8247f489d53c7b2db73acdec4a13826d3990e0d36681565b6000806000838152602001908152602001600020600101549050919050565b60006106b27f4378af9d1a279b36917461e299e6ec50e768290ce867fadcf2cece72c93ce81083610b58565b6106f1576040517f08c379a00000000000000000000000000000000000000000000000000000000081526004016106e8906117a4565b60405180910390fd5b7f416363657373204772616e7465640000000000000000000000000000000000009050919050565b7f75940455852c468556787d613e47ff569bfd78f199f52b769d99ac020664a41281565b6107478282610f85565b5050565b60006107777f680991c22f2d0a25f3125c71bd0a9d40c30a0c0bfdfc24f0e7dc5f6c8cdc366a83610b58565b6107b6576040517f08c379a00000000000000000000000000000000000000000000000000000000081526004016107ad906117a4565b60405180910390fd5b7f416363657373204772616e7465640000000000000000000000000000000000009050919050565b6107e6611065565b73ffffffffffffffffffffffffffffffffffffffff168173ffffffffffffffffffffffffffffffffffffffff1614610853576040517f08c379a000000000000000000000000000000000000000000000000000000000815260040161084a90611836565b60405180910390fd5b61085d828261106d565b5050565b61088b7f4e7ac98e8b425a1dde6c94fed7fd1bf1e29d82c564c14dc128be48e79debe21a33610b58565b61089457600080fd5b6108be7f7a6f0476c81be47c43153a8247f489d53c7b2db73acdec4a13826d3990e0d36633610b58565b6108c757600080fd5b600360006108d59190611450565b565b600080600090505b60038054905081101561096b578260010b6003828154811061090457610903611856565b5b90600052602060002090601091828204019190066002029054906101000a900460010b60010b03610958577f56616c6964000000000000000000000000000000000000000000000000000000915050610990565b8080610963906118b4565b9150506108df565b507f4e6f742056616c6964000000000000000000000000000000000000000000000090505b919050565b7f680991c22f2d0a25f3125c71bd0a9d40c30a0c0bfdfc24f0e7dc5f6c8cdc366a81565b7f3769eadea0dc8ddb9c3ffd393433d59656c529b47a8951a6cbb956dcb2628ab781565b610a077f7a6f0476c81be47c43153a8247f489d53c7b2db73acdec4a13826d3990e0d36633610b58565b610a1057600080fd5b610a3a7f4378af9d1a279b36917461e299e6ec50e768290ce867fadcf2cece72c93ce8108261073d565b50565b6004600081819054906101000a900460010b80929190610a5c906118fc565b91906101000a81548161ffff021916908360010b61ffff160217905550506003600460009054906101000a900460010b90806001815401808255809150506001900390600052602060002090601091828204019190066002029091909190916101000a81548161ffff021916908360010b61ffff1602179055507f442d9755070033d6d73fc03299e915257017a87c482f33724c8c4a5787bc38bf600160009054906101000a900473ffffffffffffffffffffffffffffffffffffffff16600260009054906101000a900473ffffffffffffffffffffffffffffffffffffffff166003604051610b4e93929190612048565b60405180910390a1565b600080600084815260200190815260200160002060000160008373ffffffffffffffffffffffffffffffffffffffff1673ffffffffffffffffffffffffffffffffffffffff16815260200190815260200160002060009054906101000a900460ff16905092915050565b7f4e7ac98e8b425a1dde6c94fed7fd1bf1e29d82c564c14dc128be48e79debe21a81565b6000801b81565b6000610c197f3769eadea0dc8ddb9c3ffd393433d59656c529b47a8951a6cbb956dcb2628ab783610b58565b610c58576040517f08c379a0000000000000000000000000000000000000000000000000000000008152600401610c4f906117a4565b60405180910390fd5b7f416363657373204772616e7465640000000000000000000000000000000000009050919050565b7f8ee64a598a4ce5fab41cc4ef32822f06b941ff81447cea36f08c218614cf7c8581565b610cce7f4e7ac98e8b425a1dde6c94fed7fd1bf1e29d82c564c14dc128be48e79debe21a33610b58565b610cd757600080fd5b610d017f7a6f0476c81be47c43153a8247f489d53c7b2db73acdec4a13826d3990e0d36633610b58565b610d0a57600080fd5b60038190806001815401808255809150506001900390600052602060002090601091828204019190066002029091909190916101000a81548161ffff021916908360010b61ffff16021790555050565b7f4378af9d1a279b36917461e299e6ec50e768290ce867fadcf2cece72c93ce81081565b610da87f4e7ac98e8b425a1dde6c94fed7fd1bf1e29d82c564c14dc128be48e79debe21a33610b58565b610db157600080fd5b610ddb7f85a28af39f6e376550a9af7adef1cb0fd4c93a83c4a54f51458173248f827bb88261073d565b50565b610de782610667565b610df08161114e565b610dfa838361106d565b505050565b6000610e2b7f85a28af39f6e376550a9af7adef1cb0fd4c93a83c4a54f51458173248f827bb883610b58565b610e6a576040517f08c379a0000000000000000000000000000000000000000000000000000000008152600401610e61906117a4565b60405180910390fd5b7f416363657373204772616e7465640000000000000000000000000000000000009050919050565b7f85a28af39f6e376550a9af7adef1cb0fd4c93a83c4a54f51458173248f827bb881565b600090565b610ee57f4e7ac98e8b425a1dde6c94fed7fd1bf1e29d82c564c14dc128be48e79debe21a33610b58565b610eee57600080fd5b610f187f680991c22f2d0a25f3125c71bd0a9d40c30a0c0bfdfc24f0e7dc5f6c8cdc366a8261073d565b50565b60007f01ffc9a7000000000000000000000000000000000000000000000000000000007bffffffffffffffffffffffffffffffffffffffffffffffffffffffff1916827bffffffffffffffffffffffffffffffffffffffffffffffffffffffff1916149050919050565b610f8f8282610b58565b61106157600160008084815260200190815260200160002060000160008373ffffffffffffffffffffffffffffffffffffffff1673ffffffffffffffffffffffffffffffffffffffff16815260200190815260200160002060006101000a81548160ff021916908315150217905550611006611065565b73ffffffffffffffffffffffffffffffffffffffff168173ffffffffffffffffffffffffffffffffffffffff16837f2f8788117e7eff1d82e926ec794901d17c78024a50270940304540a733656f0d60405160405180910390a45b5050565b600033905090565b6110778282610b58565b1561114a57600080600084815260200190815260200160002060000160008373ffffffffffffffffffffffffffffffffffffffff1673ffffffffffffffffffffffffffffffffffffffff16815260200190815260200160002060006101000a81548160ff0219169083151502179055506110ef611065565b73ffffffffffffffffffffffffffffffffffffffff168173ffffffffffffffffffffffffffffffffffffffff16837ff6391f5c32d9c69d2a47ea670b442974b53935d1edc7fd64eb21e047a839171b60405160405180910390a45b5050565b61115f8161115a611065565b611162565b50565b61116c8282610b58565b6111e357611179816111e7565b6111878360001c6020611214565b604051602001611198929190612198565b6040516020818303038152906040526040517f08c379a00000000000000000000000000000000000000000000000000000000081526004016111da919061221c565b60405180910390fd5b5050565b606061120d8273ffffffffffffffffffffffffffffffffffffffff16601460ff16611214565b9050919050565b606060006002836002611227919061223e565b6112319190612298565b67ffffffffffffffff81111561124a576112496122ee565b5b6040519080825280601f01601f19166020018201604052801561127c5781602001600182028036833780820191505090505b5090507f3000000000000000000000000000000000000000000000000000000000000000816000815181106112b4576112b3611856565b5b60200101907effffffffffffffffffffffffffffffffffffffffffffffffffffffffffffff1916908160001a9053507f78000000000000000000000000000000000000000000000000000000000000008160018151811061131857611317611856565b5b60200101907effffffffffffffffffffffffffffffffffffffffffffffffffffffffffffff1916908160001a90535060006001846002611358919061223e565b6113629190612298565b90505b6001811115611402577f3031323334353637383961626364656600000000000000000000000000000000600f8616601081106113a4576113a3611856565b5b1a60f81b8282815181106113bb576113ba611856565b5b60200101907effffffffffffffffffffffffffffffffffffffffffffffffffffffffffffff1916908160001a905350600485901c9450806113fb9061231d565b9050611365565b5060008414611446576040517f08c379a000000000000000000000000000000000000000000000000000000000815260040161143d90612392565b60405180910390fd5b8091505092915050565b50805460008255600f0160109004906000526020600020908101906114759190611478565b50565b5b80821115611491576000816000905550600101611479565b5090565b600080fd5b60007fffffffff0000000000000000000000000000000000000000000000000000000082169050919050565b6114cf8161149a565b81146114da57600080fd5b50565b6000813590506114ec816114c6565b92915050565b60006020828403121561150857611507611495565b5b6000611516848285016114dd565b91505092915050565b60008115159050919050565b6115348161151f565b82525050565b600060208201905061154f600083018461152b565b92915050565b600073ffffffffffffffffffffffffffffffffffffffff82169050919050565b600061158082611555565b9050919050565b61159081611575565b811461159b57600080fd5b50565b6000813590506115ad81611587565b92915050565b6000602082840312156115c9576115c8611495565b5b60006115d78482850161159e565b91505092915050565b6000819050919050565b6115f3816115e0565b82525050565b600060208201905061160e60008301846115ea565b92915050565b61161d816115e0565b811461162857600080fd5b50565b60008135905061163a81611614565b92915050565b60006020828403121561165657611655611495565b5b60006116648482850161162b565b91505092915050565b6000806040838503121561168457611683611495565b5b60006116928582860161162b565b92505060206116a38582860161159e565b9150509250929050565b60008160010b9050919050565b6116c3816116ad565b81146116ce57600080fd5b50565b6000813590506116e0816116ba565b92915050565b6000602082840312156116fc576116fb611495565b5b600061170a848285016116d1565b91505092915050565b6000819050919050565b61172681611713565b82525050565b6000602082019050611741600083018461171d565b92915050565b600082825260208201905092915050565b7f4163636573732044656e69656400000000000000000000000000000000000000600082015250565b600061178e600d83611747565b915061179982611758565b602082019050919050565b600060208201905081810360008301526117bd81611781565b9050919050565b7f416363657373436f6e74726f6c3a2063616e206f6e6c792072656e6f756e636560008201527f20726f6c657320666f722073656c660000000000000000000000000000000000602082015250565b6000611820602f83611747565b915061182b826117c4565b604082019050919050565b6000602082019050818103600083015261184f81611813565b9050919050565b7f4e487b7100000000000000000000000000000000000000000000000000000000600052603260045260246000fd5b7f4e487b7100000000000000000000000000000000000000000000000000000000600052601160045260246000fd5b60006118bf82611713565b91507fffffffffffffffffffffffffffffffffffffffffffffffffffffffffffffffff82036118f1576118f0611885565b5b600182019050919050565b6000611907826116ad565b9150617fff820361191b5761191a611885565b5b600182019050919050565b61192f81611575565b82525050565b600081549050919050565b600082825260208201905092915050565b60008190508160005260206000209050919050565b61196f816116ad565b82525050565b60008160001c9050919050565b60008160010b9050919050565b60006119a261199d83611975565b611982565b9050919050565b60008160101c9050919050565b60006119c96119c4836119a9565b611982565b9050919050565b60008160201c9050919050565b60006119f06119eb836119d0565b611982565b9050919050565b60008160301c9050919050565b6000611a17611a12836119f7565b611982565b9050919050565b60008160401c9050919050565b6000611a3e611a3983611a1e565b611982565b9050919050565b60008160501c9050919050565b6000611a65611a6083611a45565b611982565b9050919050565b60008160601c9050919050565b6000611a8c611a8783611a6c565b611982565b9050919050565b60008160701c9050919050565b6000611ab3611aae83611a93565b611982565b9050919050565b60008160801c9050919050565b6000611ada611ad583611aba565b611982565b9050919050565b60008160901c9050919050565b6000611b01611afc83611ae1565b611982565b9050919050565b60008160a01c9050919050565b6000611b28611b2383611b08565b611982565b9050919050565b60008160b01c9050919050565b6000611b4f611b4a83611b2f565b611982565b9050919050565b60008160c01c9050919050565b6000611b76611b7183611b56565b611982565b9050919050565b60008160d01c9050919050565b6000611b9d611b9883611b7d565b611982565b9050919050565b60008160e01c9050919050565b6000611bc4611bbf83611ba4565b611982565b9050919050565b60008160f01c9050919050565b6000611beb611be683611bcb565b611982565b9050919050565b6000611bfd82611935565b611c078185611940565b935083611c1384611951565b6000600115611dc0575b83600160100382011015611dbf578154611c3f88611c3a8361198f565b611966565b602088019750611c5788611c52836119b6565b611966565b602088019750611c6f88611c6a836119dd565b611966565b602088019750611c8788611c8283611a04565b611966565b602088019750611c9f88611c9a83611a2b565b611966565b602088019750611cb788611cb283611a52565b611966565b602088019750611ccf88611cca83611a79565b611966565b602088019750611ce788611ce283611aa0565b611966565b602088019750611cff88611cfa83611ac7565b611966565b602088019750611d1788611d1283611aee565b611966565b602088019750611d2f88611d2a83611b15565b611966565b602088019750611d4788611d4283611b3c565b611966565b602088019750611d5f88611d5a83611b63565b611966565b602088019750611d7788611d7283611b8a565b611966565b602088019750611d8f88611d8a83611bb1565b611966565b602088019750611da788611da283611bd8565b611966565b60208801975060018301925050601081019050611c1d565b5b60011561203b57815484821015611df057611de388611dde8361198f565b611966565b6020880197506001820191505b84821015611e1757611e0a88611e05836119b6565b611966565b6020880197506001820191505b84821015611e3e57611e3188611e2c836119dd565b611966565b6020880197506001820191505b84821015611e6557611e5888611e5383611a04565b611966565b6020880197506001820191505b84821015611e8c57611e7f88611e7a83611a2b565b611966565b6020880197506001820191505b84821015611eb357611ea688611ea183611a52565b611966565b6020880197506001820191505b84821015611eda57611ecd88611ec883611a79565b611966565b6020880197506001820191505b84821015611f0157611ef488611eef83611aa0565b611966565b6020880197506001820191505b84821015611f2857611f1b88611f1683611ac7565b611966565b6020880197506001820191505b84821015611f4f57611f4288611f3d83611aee565b611966565b6020880197506001820191505b84821015611f7657611f6988611f6483611b15565b611966565b6020880197506001820191505b84821015611f9d57611f9088611f8b83611b3c565b611966565b6020880197506001820191505b84821015611fc457611fb788611fb283611b63565b611966565b6020880197506001820191505b84821015611feb57611fde88611fd983611b8a565b611966565b6020880197506001820191505b84821015612012576120058861200083611bb1565b611966565b6020880197506001820191505b848210156120395761202c8861202783611bd8565b611966565b6020880197506001820191505b505b8694505050505092915050565b600060608201905061205d6000830186611926565b61206a6020830185611926565b818103604083015261207c8184611bf2565b9050949350505050565b600081905092915050565b7f416363657373436f6e74726f6c3a206163636f756e7420000000000000000000600082015250565b60006120c7601783612086565b91506120d282612091565b601782019050919050565b600081519050919050565b60005b838110156121065780820151818401526020810190506120eb565b83811115612115576000848401525b50505050565b6000612126826120dd565b6121308185612086565b93506121408185602086016120e8565b80840191505092915050565b7f206973206d697373696e6720726f6c6520000000000000000000000000000000600082015250565b6000612182601183612086565b915061218d8261214c565b601182019050919050565b60006121a3826120ba565b91506121af828561211b565b91506121ba82612175565b91506121c6828461211b565b91508190509392505050565b6000601f19601f8301169050919050565b60006121ee826120dd565b6121f88185611747565b93506122088185602086016120e8565b612211816121d2565b840191505092915050565b6000602082019050818103600083015261223681846121e3565b905092915050565b600061224982611713565b915061225483611713565b9250817fffffffffffffffffffffffffffffffffffffffffffffffffffffffffffffffff048311821515161561228d5761228c611885565b5b828202905092915050565b60006122a382611713565b91506122ae83611713565b9250827fffffffffffffffffffffffffffffffffffffffffffffffffffffffffffffffff038211156122e3576122e2611885565b5b828201905092915050565b7f4e487b7100000000000000000000000000000000000000000000000000000000600052604160045260246000fd5b600061232882611713565b91506000820361233b5761233a611885565b5b600182039050919050565b7f537472696e67733a20686578206c656e67746820696e73756666696369656e74600082015250565b600061237c602083611747565b915061238782612346565b602082019050919050565b600060208201905081810360008301526123ab8161236f565b905091905056fea26469706673582212201d694ac3109d3e620fdb5c563fce2f9d3c9242eb0bd30afbbec82afeb41affd564736f6c634300080f0033",
  "immutableReferences": {},
  "source": "// SPDX-License-Identifier: GPL-3.0\n\npragma solidity >=0.3.0 <0.9.0;\n\nimport \"../node_modules/@openzeppelin/contracts/access/AccessControl.sol\";\nimport \"../node_modules/@openzeppelin/contracts/access/Ownable.sol\";\n\n// import \"@openzeppelin/contracts/access/Roles.sol\";\n\ncontract Policy is AccessControl {\n\n    bytes32 public constant VIDEO_WORKSPACE_ADMIN = keccak256(\"VIDEO_WORKSPACE_ADMIN\");\n    bytes32 public constant AUDIO_WORKSPACE_ADMIN = keccak256(\"AUDIO_WORKSPACE_ADMIN\");\n\n    bytes32 public constant SEND_VIDEO = keccak256(\"VIDEO_SENDER_ROLE\");\n    bytes32 public constant RECEIVE_VIDEO = keccak256(\"VIDEO_RECEIVER_ROLE\");\n    bytes32 public constant SEND_AUDIO = keccak256(\"AUDIO_SENDER_ROLE\");\n    bytes32 public constant RECEIVE_AUDIO = keccak256(\"AUDIO_RECEIVER_ROLE\");\n    bytes32 public constant SEND_TEXT = keccak256(\"TEXT_SENDER_ROLE\");\n    bytes32 public constant RECEIVE_TEXT = keccak256(\"TEXT_RECEIVER_ROLE\");\n\n    address video_admin;\n    address audio_admin;\n\n    int16[] tokens = new int16[](0);\n\n    int16 counter = 0;\n\n    event MyEvent (\n        address video_admin_event,\n        address audio_admin_event,\n        int16[] tokens\n    );\n    \n    event AuthTokens (\n        bytes32 tokens\n    );\n\n    constructor(address default_video_admin, address default_audio_admin) {\n\n        video_admin = default_video_admin;\n        audio_admin = default_audio_admin;\n\n        _grantRole(VIDEO_WORKSPACE_ADMIN, video_admin);\n        _grantRole(AUDIO_WORKSPACE_ADMIN, audio_admin);\n\n    }\n\n    // function push_new_token() external{\n    //     // counter++;\n    //     // tokens.push(counter);\n    // }\n\n    function get_default_admins() external {\n        counter++;\n        tokens.push(counter);\n        emit MyEvent(video_admin, audio_admin, tokens);\n        // emit MyEvent(video_admin);\n    }\n\n    function check_send_video(address addr) public view returns(bytes32) {\n        require(hasRole(SEND_VIDEO, addr), \"Access Denied\");\n        return \"Access Granted\";\n    }\n\n    function check_receive_video(address addr) public view returns(bytes32) {\n        require(hasRole(RECEIVE_VIDEO, addr), \"Access Denied\");\n        return \"Access Granted\";\n    }\n\n    function check_send_audio(address addr) public view returns(bytes32) {\n        require(hasRole(SEND_AUDIO, addr), \"Access Denied\");\n        return \"Access Granted\";\n    }\n\n    function check_receive_audio(address addr) public view returns(bytes32) {\n        require(hasRole(RECEIVE_AUDIO, addr), \"Access Denied\");\n        return \"Access Granted\";\n    }\n\n    function grantRole(bytes32 role, address account) public override  {\n        _grantRole(role, account);\n    }\n\n    function Grant_Video_Sender_Role(address receiver) public {\n        require(hasRole(VIDEO_WORKSPACE_ADMIN, msg.sender));\n        grantRole(SEND_VIDEO, receiver);\n    }\n\n    function Grant_Video_Receiver_Role(address receiver) public {\n        require(hasRole(VIDEO_WORKSPACE_ADMIN, msg.sender));\n        grantRole(RECEIVE_VIDEO, receiver);\n    }\n\n    function Grant_Audio_Sender_Role(address receiver) public {\n        require(hasRole(AUDIO_WORKSPACE_ADMIN, msg.sender));\n        grantRole(SEND_AUDIO, receiver);\n    }\n\n    function Grant_Audio_Receiver_Role(address receiver) public {\n        require(hasRole(AUDIO_WORKSPACE_ADMIN, msg.sender));\n        grantRole(RECEIVE_AUDIO, receiver);\n    }\n\n    function Clear_Tokens() public {\n        require(hasRole(AUDIO_WORKSPACE_ADMIN, msg.sender));\n        require(hasRole(VIDEO_WORKSPACE_ADMIN, msg.sender));\n        delete tokens;\n    }\n\n    function Generate_Token(int16 random_num) public {\n        require(hasRole(AUDIO_WORKSPACE_ADMIN, msg.sender));\n        require(hasRole(VIDEO_WORKSPACE_ADMIN, msg.sender));\n        tokens.push(random_num);\n    }\n\n    function Check_Token(int16 token_val) public view returns(bytes32) {\n        for (uint i=0; i<tokens.length; i++) {\n            if (tokens[i] == token_val) {\n                return \"Valid\";\n            }\n        }\n        return \"Not Valid\";\n    }\n\n    function get_number() public view returns(uint) {\n        return 0;\n    }\n\n}",
  "sourcePath": "/Users/zack/Documents/web3_blockchain/Access_Control_Contract/contracts/Policy.sol",
  "compiler": {
    "name": "solc",
    "version": "0.8.15+commit.e14f2714.Emscripten.clang"
  },
  "schemaVersion": "3.4.14",
  "updatedAt": "2023-05-30T00:32:24.685Z",
  "networkType": "ethereum",
  "devdoc": {
    "kind": "dev",
    "methods": {
      "getRoleAdmin(bytes32)": {
        "details": "Returns the admin role that controls `role`. See {grantRole} and {revokeRole}. To change a role's admin, use {_setRoleAdmin}."
      },
      "grantRole(bytes32,address)": {
        "details": "Grants `role` to `account`. If `account` had not been already granted `role`, emits a {RoleGranted} event. Requirements: - the caller must have ``role``'s admin role. May emit a {RoleGranted} event."
      },
      "hasRole(bytes32,address)": {
        "details": "Returns `true` if `account` has been granted `role`."
      },
      "renounceRole(bytes32,address)": {
        "details": "Revokes `role` from the calling account. Roles are often managed via {grantRole} and {revokeRole}: this function's purpose is to provide a mechanism for accounts to lose their privileges if they are compromised (such as when a trusted device is misplaced). If the calling account had been revoked `role`, emits a {RoleRevoked} event. Requirements: - the caller must be `account`. May emit a {RoleRevoked} event."
      },
      "revokeRole(bytes32,address)": {
        "details": "Revokes `role` from `account`. If `account` had been granted `role`, emits a {RoleRevoked} event. Requirements: - the caller must have ``role``'s admin role. May emit a {RoleRevoked} event."
      },
      "supportsInterface(bytes4)": {
        "details": "See {IERC165-supportsInterface}."
      }
    },
    "version": 1
  },
  "userdoc": {
    "kind": "user",
    "methods": {},
    "version": 1
  }
}